:020000040800F2
:1000000000000220A12C0008E52C00083110000897
:10001000E52C0008E52C0008E52C00080000000095
:10002000000000000000000000000000E52C0008B7
:10003000E52C00080000000075200008E10F000812
:10004000E52C0008E52C0008E52C0008E52C00084C
:10005000E52C0008E52C0008E52C0008E52C00083C
:10006000E52C0008E52C0008E52C0008E52C00082C
:10007000E52C0008E52C0008E52C0008E52C00081C
:10008000E52C0008451B0008E52C0008E52C0008BD
:10009000E52C0008E52C0008E52C0008E52C0008FC
:1000A000E52C0008E52C0008E52C0008E52C0008EC
:1000B000E52C0008E52C0008E52C0008E52C0008DC
:1000C000E52C0008E52C0008E52C0008E52C0008CC
:1000D000E52C0008E52C0008711B0008E52C000841
:1000E000E52C0008E52C0008E52C0008E52C0008AC
:1000F000E52C0008E52C0008E52C0008E52C00089C
:10010000E52C0008E52C0008E52C0008E52C00088B
:10011000E52C0008E52C0008E52C0008E52C00087B
:10012000E52C0008E52C0008E52C0008E52C00086B
:10013000E52C0008E52C0008E52C0008E52C00085B
:10014000E52C0008E52C0008E52C0008E52C00084B
:10015000E52C0008E52C0008E52C0008E52C00083B
:10016000E52C0008E52C0008E52C0008E52C00082B
:10017000E52C0008E52C0008E52C0008E52C00081B
:08018000E52C0008E52C000845
:1001880072B6134B1348196B134A41F004011963F3
:10019800596C41F480415964016821F04061016063
:1001A800516921F0F00151615169A3F57C4341F097
:1001B800200151611A68094942F400521A60DA684C
:1001C8004FF4807042F40052DA60486062B67047BB
:1001D80000380240000802400038014000E100E019
:1001E8000649074A0B6B43F004030B63136843F497
:1001F8008A7343F001031360704700BF0038024060
:1002080000080240024A536983F0010353617047B2
:1002180000080240024A536983F0020353617047A1
:1002280000080240024A536983F00403536170478F
:1002380000080240024A536983F010035361704773
:10024800000802400549064A0B6B43F001030B63A3
:10025800136823F011031360704700BF0038024091
:1002680000000240024B186900F00100704700BF0F
:10027800000002400E490F4A0B6C43F0020310B411
:100288000B649F24632394620021D362012351628B
:10029800136048B11369DB07FCD51369013123F0FA
:1002A800010381421361F5D15DF8044B704700BF2B
:1002B80000380240000400400D4A0E4B116B10B488
:1002C80041F001010C4C1163216841F00C012160DF
:1002D800516C5DF8044B41F4807151640020012297
:1002E80098605A63D8629A6842F001029A6070472F
:1002F800003802400020014000000240044A936890
:1003080043F08043936013689B07FCD5D06C70471B
:100318000020014072B60649064A0B6B43F00803F9
:100328000B63136843F0AA43136062B6704700BFBB
:1003380000380240000C0240024A536943F400436B
:1003480053617047000C0240024A536923F400438A
:1003580053617047000C0240024A536943F400534A
:1003680053617047000C0240024A536923F400535A
:1003780053617047000C0240024A536943F48053AA
:1003880053617047000C0240024A536923F48053BA
:1003980053617047000C0240024A536943F480439A
:1003A80053617047000C0240024A536923F48043AA
:1003B80053617047000C0240024A536983F40043BA
:1003C80053617047000C0240024A536983F480531A
:1003D80053617047000C0240024A536983F480431A
:1003E80053617047000C0240024A536983F400537A
:1003F80053617047000C0240024A136843F480734B
:100408001360704700540040024A136843F40073B5
:100418001360704700540040024A136843F4806335
:100428001360704700540040024A136823F4806345
:10043800136070470054004005494B69DA07FCD542
:10044800034A086153699B07FCD553699369704750
:100458000054004005494B69DA07FCD5034A086196
:1004680053699B07FCD55369936970470054004052
:10047800044A53691906FCD5024910614B691B06E9
:10048800FCD5704700540040024A93699B07FCD48E
:10049800704700BF00540040024A106153695B076F
:1004A800FCD5704700540040034A53695B06FCD5ED
:1004B8001069C0B2704700BF005400401F4A9369DA
:1004C8009907FCD413681D4943F4806313601368CB
:1004D80043F4807313604B69DB07FCD53223174A5A
:1004E8000B6153699907FCD55369144993694B69A2
:1004F8001A06FCD5114A086153691B06FCD5136816
:100508000E4943F4807313604B69D807FCD5332335
:100518000A4A0B6153699907FCD5536993691368B3
:10052800064923F480631360136843F4007313606F
:100538004B695B06FCD50869C0B27047005400409F
:1005480030B4144A93699C07FCD41368114C43F4E3
:10055800807313606369DB07FCD532230D4A23617E
:1005680053699D07FCD553690A4D93696B691C064D
:10057800FCD5084C286163691A06FCD5054A216137
:1005880053695B07FCD5136843F4007330BC1360F0
:10059800704700BF005400402B492C4A086B40F0BC
:1005A800020008B508631068294B40F40220106067
:1005B800106A40F080601062506A40F0400050625B
:1005C800906840F4022090600A6C42F400120A64B9
:1005D8005A6822F03F025A605A6842F002025A6092
:1005E800DA6922F47F6222F00F02DA61DA6942F0F6
:1005F8005002DA611A6A22F03F021A621A6A42F05D
:1006080003021A629A6842F4804242F042029A60F7
:100618001A6842F001020F201A60FFF74FFF3328D3
:1006280001D0FFF7B9FE47212020FFF789FF9C2161
:10063800002000F0EFFDE021012000F0EBFDBDE817
:10064800084000F0B3BE00BF00380240000402407A
:100658000054004070B5064629200D461446FFF7A1
:100668002DFF000230802820FFF728FF3388184329
:1006780030802B20FFF722FF000228802A20FFF776
:100688001DFF2A88034613432B802D20FFF716FFF2
:10069800000220802C20FFF711FF238818432080B8
:1006A80070BD00BF0F4A104B106B104940F001009D
:1006B80010B41063506C40F0100050645A6A42F451
:1006C800EE625A621A6840F2836442F420121A6099
:1006D8008C60CB685DF8044B43F4005343F00C0383
:1006E800CB60704700380240000002400010014013
:1006F80038B5074C23681A06054604D400F04EFCAA
:1007080023681B06FAD5024BEAB25A60284638BD60
:100718000010014010B5064C23689A0604D400F076
:100728003DFC23689B06FAD5014B586810BD00BFF5
:1007380000100140F8B5064672B60F4F3B68012B12
:1007480006D162B600F02AFC72B63B68012BF8D0DD
:1007580001233B6062B635785DB1084C01E000F0DA
:100768001DFC23681B06FAD5656016F8015F002D8D
:10077800F7D100233B60F8BD0800002000100140BD
:1007880030B585B00A2201A900F0FCFE9DF80440AE
:1007980054B10024013424B204AB234413F80C3CB4
:1007A800002BF7D1062C07DC064D0134284624B26D
:1007B800FFF7C0FF072CF8D101A8FFF7BBFF05B072
:1007C80030BD00BF0C32000870B50E4D0E4EAB693F
:1007D800044643F40023AB6144F0800401F03EFC7E
:1007E800F46001F033FCF36801F038FCFF23F36098
:1007F80001F02CFCF068AB6943F00803C0B2AB61B0
:1008080070BD00BF0010024000300140F8B50C4C2C
:100818000C4DA36943F400230746A3610E4601F07B
:100828001DFCEF6001F012FCEB6801F017FCEE60B4
:1008380001F00CFCEB68A36943F00803A361F8BD61
:100848000010024000300140304A116B41F00101B4
:1008580038B51163116B2E4B2E4C2F4D41F0100102
:100868001163516C41F4805151641A6842F4284272
:100878001A60226842F0400222601A6A42F0AA42D4
:1008880042F4A0021A629A6842F428429A60A36865
:1008980043F08003A3602B6843F4457343F00303DC
:1008A8002B602B6843F040032B60A36943F00803D7
:1008B800A361A36943F40023A36101F0CFFB8F2355
:1008C800EB6001F0C3FBEB6801F0C8FBFF23EB60B2
:1008D80001F0BCFBEB68A36943F00803A361A369BB
:1008E80043F40023A36101F0B9FB2023EB6001F07E
:1008F800ADFBEB6801F0B2FB0F23EB6001F0A6FB48
:10090800EB68A36943F00803A36138BD00380240CF
:100918000000024000100240003001402DE9F04183
:10092800234D244EAB69044643F40023AB6144F0E5
:1009380080040F464FF0FF0801F090FBF46001F0CF
:1009480085FBF36801F08AFBC6F80C8001F07EFB9A
:10095800F468AB6943F00803AB61AB6943F4002367
:10096800AB6147F0800701F079FBF76001F06EFB9F
:10097800F36801F073FBC6F80C8001F067FBF368BD
:100988009FED0D7AE4B244EA032423B207EE903ACD
:10099800F8EEE77AAB6967EE877A43F00803FDEE75
:1009A800E77AAB6117EE903A18B2BDE8F08100BF64
:1009B8000010024000300140295C0F3C2DE9F0474F
:1009C8005D4C5E4DA36943F400232DED028BA361BA
:1009D80082468946904601F041FBA823FF27EB6039
:1009E80001F034FBEB689FED568A01F037FBEF60AE
:1009F80001F02CFBEE68A36943F00803A361A36927
:100A080043F40023A36101F029FBA923EB6001F063
:100A18001DFBEB6801F022FBEF6001F017FBEB68B0
:100A2800F6B246EA032633B207EE903AF8EEE77AD2
:100A3800A36967EE887A43F00803FDEEE77AA361BD
:100A4800A36917EE902A43F40023AAF80020A361B3
:100A580001F004FBAA23EB6001F0F8FAEB6801F05F
:100A6800FDFAEF6001F0F2FAEE68A36943F00803BB
:100A7800A361A36943F40023A36101F0EFFAAB2358
:100A8800EB6001F0E3FAEB6801F0E8FAEF6001F0DF
:100A9800DDFAEB68F6B246EA032633B207EE903A7F
:100AA800F8EEE77AA36967EE887A43F00803FDEE6B
:100AB800E77AA361A36917EE902A43F40023A9F803
:100AC8000020A36101F0CAFAAC23EB6001F0BEFA82
:100AD800EB6801F0C3FAEF6001F0B8FAEE68A369B9
:100AE80043F00803A361A36943F40023A36101F061
:100AF800B5FAAD23EB6001F0A9FAEB6801F0AEFAA4
:100B0800EF6001F0A3FAEB68F6B246EA032633B2C7
:100B180007EE903AF8EEE77AA36967EE887ABDECBB
:100B2800028BFDEEE77A43F00803A36117EE903AD3
:100B3800A8F80030BDE8F0870010024000300140FE
:100B4800295C0F3C024A136843F4807313607047B2
:100B5800005C0040024A136843F400731360704756
:100B6800005C0040024A136843F4806313607047D6
:100B7800005C0040024A136823F4806313607047E6
:100B8800005C004005494B69DA07FCD5034A086157
:100B980053699B07FCD5536993697047005C004013
:100BA80005494B69DA07FCD5034A086153699B0775
:100BB800FCD5536993697047005C0040044A536947
:100BC8001906FCD5024910614B691B06FCD5704714
:100BD800005C0040024A93699B07FCD4704700BF41
:100BE800005C0040024A106153695B07FCD57047FE
:100BF800005C0040034A53695B06FCD51069C0B22B
:100C0800704700BF005C00401F4A93699907FCD4F5
:100C180013681D4943F480631360136843F48073B9
:100C280013604B69DB07FCD53223174A0B61536904
:100C38009907FCD55369144993694B691A06FCD581
:100C4800114A086153691B06FCD513680E4943F421
:100C5800807313604B69D807FCD533230A4A0B61AC
:100C680053699907FCD5536993691368064923F4B6
:100C780080631360136843F4007313604B695B0669
:100C8800FCD50869C0B27047005C004030B4144A13
:100C980093699C07FCD41368114C43F48073136068
:100CA8006369DB07FCD532230D4A236153699D072D
:100CB800FCD553690A4D93696B691C06FCD5084C31
:100CC800286163691A06FCD5054A216153695B07E7
:100CD800FCD5136843F4007330BC1360704700BF41
:100CE800005C004025482649036B264A43F005036B
:100CF80010B403630B6843F400330B601468224B91
:100D080044F4002414604C6A44F004044C62546AAD
:100D180044F0400454628C6844F400348C60916858
:100D280041F400219160026C42F4000202645A68A6
:100D380022F03F025A605A6842F002025A60DA69A9
:100D480022F47F6222F00F02DA61DA6942F050027F
:100D5800DA611A6A22F03F021A621A6A42F0030242
:100D68001A629A6842F4804242F042029A601A6813
:100D780042F001021A605DF8044B704700380240E7
:100D88000000024000080240005C0040104A116860
:100D98000123FF20C1E90330137172B64FF0E0233D
:100DA80092681969C2EB021221F001010020013A90
:100DB800196198615A611A6942F007021A6162B6AC
:100DC800D3F8042D42F08062C3F8042D704700BFA9
:100DD8000C00002030B42C4B2C4C2D4D48F2D04246
:100DE80000FB02F248F2904100EB800003EB800028
:100DF800A3180A442244C26048F2C44048F2CC44D2
:100E08001D504FF08070185148F2BC404FF0033429
:100E18001C5048F2B8404FF002341C5048F2B4401D
:100E28004FF001341C5048F2B04000241C5048F2E6
:100E3800AC404FF011341C5048F2A8404FF0103429
:100E48001C5048F2A4404FF009341C5048F2A0400E
:100E58004FF008341C5048F29C404FF007341C50A7
:100E680048F298404FF006341C5048F294404FF036
:100E780005341C5048F2C0424FF0043058504FF02F
:100E8800123130BC995070470C00002074080020C3
:100E9800950D0008F8B507460E4672B6104CE56881
:100EA80045B1236A2BB1636B02251BB14FF0FF30AC
:100EB800F8BD01252846FFF78DFF05EB850304EBF8
:100EC8008304084B002248F2D040C4E90626626138
:100ED80000FB053348F2C8429F5062B60120F8BDB6
:100EE8000C00002074080020164A174B30B4546BCD
:100EF80003F10C0544F000441D609D635463546B7A
:100F08004FF47A5524F080449D6054630F4CD4F814
:100F180088200020012142F47002D860996118628B
:100F28005863D962196403F12000C4F8882003F1DA
:100F38003401FF2230BCDA6118611A6359625A64BD
:100F4800704700BF00EF00E00C00002000ED00E05B
:100F5800114A4FF0E02392681969C2EB0212013A74
:100F680021F001010020196198615A61D3F8202D00
:100F780022F07F4242F0E062C3F8202D1A6942F065
:100F880007021A61D3F8202D22F47F0242F40022CE
:100F9800C3F8202D01F085B80C00002072B60D4A68
:100FA8004FF0E02392681969C2EB021221F00101A7
:100FB8000020013A196198615A611A6942F00702E2
:100FC8001A6162B6D3F8042D42F08062C3F8042D8A
:100FD800704700BF0C0000204FF0E022D2F8043D1B
:100FE80043F08053C2F8043D704700BF70B40D4C05
:100FF80094F904302168012B02D100230B6023717E
:101008000D460B46FF205B681A69824205D2DE68EE
:101018001EB99E680EB9D0B21D469942F3D125601B
:1010280070BC70470C0000204FF0E0221A4BD2F839
:101038002C0DD2F83C1DD2F8284DC3E91201D2F884
:10104800381DD2F8000F83F8504083F85110D2F8B9
:10105800281DD2F82A4DC3E91501D2F8881DD2F807
:10106800340F1966D2F8241DA3F85C40C3E91901AE
:10107800F1EE100AD2F8041DD2F8004DC3E91B01A5
:10108800D2F8180DD2F81C1DD2F8202DC3E91D4046
:10109800C3E91F12FEE700BF0C000020000000009B
:1010A800F8B50D4614460646FFF7EEF9FFF7B4F912
:1010B800FFF7A2F93C20FFF7BFF90320FFF7D8F9A3
:1010C800FFF79AF93D20FFF7B7F9FFF7ADF9FFF7FA
:1010D8009BF9FFF7E9F90746FFF7D6F9FFF79CF9FF
:1010E800FFF78AF93C20FFF7A7F90420FFF7C0F9BA
:1010F800FFF782F93D20FFF79FF9FFF795F9FFF712
:1011080083F9FFF7D1F940EA07203080FFF7BCF9EF
:10111800FFF782F9FFF770F93C20FFF78DF90720F8
:10112800FFF7A6F9FFF768F93D20FFF785F9FFF704
:101138007BF9FFF769F9FFF7B7F90646FFF7A4F956
:10114800FFF76AF9FFF758F93C20FFF775F908200F
:10115800FFF78EF9FFF750F93D20FFF76DF9FFF71C
:1011680063F9FFF751F9FFF79FF940EA0620288055
:10117800FFF78AF9FFF750F9FFF73EF93C20FFF730
:101188005BF90520FFF774F9FFF736F93D20FFF703
:1011980053F9FFF749F9FFF737F9FFF785F90546DE
:1011A800FFF772F9FFF738F9FFF726F93C20FFF748
:1011B80043F90620FFF75CF9FFF71EF93D20FFF71A
:1011C8003BF9FFF731F9FFF71FF9FFF76DF940EA2F
:1011D80005202080FFF7B8F80120F8BD10B50446B7
:1011E800FFF752F9FFF718F9FFF706F93C20FFF768
:1011F80023F92046FFF73CF9FFF7FEF83D20FFF7FB
:101208001BF9FFF711F9FFF7FFF8BDE81040FFF7EA
:101218004BB900BF38B50C460546FFF735F9FFF75F
:10122800EBF83C20FFF708F92846FFF721F920469C
:10123800FFF732F9BDE83840FFF7E6B8F8B50E46D3
:1012480017460546FFF778F8FFF71EF9FFF7E4F8A9
:10125800FFF7D2F83C20FFF7EFF80920FFF708F96D
:10126800FFF7CAF83D20FFF7E7F8FFF7DDF8FFF7CB
:10127800CBF8FFF719F910F0010405D03A463146CA
:101288002846BDE8F8400BE7FFF75EF82046F8BDB2
:101298002DE9F0432DED028B83B0FFF77DF8FFF7C2
:1012A800F3F8FFF7A9F83C20FFF7C6F80220FFF78C
:1012B800DFF80020FFF7F0F8FFF7A6F89FED380AEF
:1012C800384FDFF8E49000F057FD33A5D5E9004525
:1012D80000264FF47A7824E0FFF7E2FEBDF9020019
:1012E80001F076F902460B46BDF9040043EC182BD1
:1012F80001F06EF9B0EE481AF0EE681A41EC100BE6
:1013080001F0EEFC324651EC100B3B4601F0CAF9F5
:1013180022462B4601F0F0FAB8F10108C9E90001AC
:1013280023D0FFF709F8FFF7AFF8FFF775F8FFF7D5
:1013380063F83C20FFF780F80920FFF799F8FFF7DA
:101348005BF83D20FFF778F8FFF76EF8FFF75CF8D9
:10135800FFF7AAF810F0010F0DF1060201A90DF12F
:101368000200B9D1FEF7F0FFB8E7FFF78DF8FFF7F5
:1013780043F83C20FFF760F80220FFF779F80320D4
:10138800FFF78AF8FFF740F8FFF70EF803B0BDEC57
:10139800028BBDE8F08300BFF1D4C853FB2109409C
:1013A8006F12833A00806640E8960120FFF770BF0D
:1013B80010B52DED028B0C4601F00AF902460B46DA
:1013C800204643EC182B01F003F9B0EE481AF0EE72
:1013D800681A41EC100B01F083FC0B4B51EC100B1D
:1013E800002201F05FF906A3D3E9002301F084FA93
:1013F800BDEC028B41EC100B10BD00BFAFF30080B9
:10140800F1D4C853FB21094000806640054908B55E
:10141800D1E9000153EC102B00F08CFF41EC100BCC
:1014280008BD00BFE896012070B5094E012441F2BD
:101438008835FFF7B3FD631CA6FB0324240B05FBCB
:10144800143414B9FEF7C8FFF3E71C46F1E700BFF0
:101458005917B7D108B5064800F0E2FBFEF7B4FF0C
:10146800B1EE040A00F088FCFFF798FDF6E700BF2C
:10147800103200082B4B2C481A6B2C4942F00702FB
:1014880070B41A631A6C42F003021A645A6C42F47C
:10149800C0625A64036A264A43F001030362036880
:1014A80043F002030360486A40F00300486208689A
:1014B80040F400300860116A41F00071116211684F
:1014C8004FF0804341F400511160092500220121A9
:1014D80043F67F6460209D62DC625A6298611962FB
:1014E8005A631E680E431E60C3F82854C3F82C4480
:1014F800C3F82424C3F81804C3F82014C3F8342408
:10150800D3F800640E43C3F8006403F5A2339D6268
:10151800DC625A62986119625A631A680A4370BC9D
:101528001A60704700380240000002400004024080
:101538000008024030B5124D8E46044690FBF2F08A
:1015480002FB104CAC4473469CF823C00EF801CB48
:101558000028F2D1002C05DA9A1C2D238EF80030D1
:101568007346964600228B428EF8002007D91A78D7
:10157800087803F8010901F8012B8B42F7D830BD30
:101588001C320008931E222B10B50C4603D8FFF717
:10159800D1FF204610BD00230B70204610BD00BFB0
:1015A800014800F03DBB00BF6432000830B585B08B
:1015B8000A2201A9FFF7BEFF9DF8044054B1002498
:1015C800013424B204AB234413F80C3C002BF7D1AC
:1015D800062C07DC064D0134284624B200F020FB17
:1015E800072CF8D101A800F01BFB05B030BD00BFE7
:1015F8000C32000870B584B00C46164600F010FB9B
:10160800204800F00DFB20460A2201A9FFF792FFAF
:101618009DF8044054B10024013424B204AB23449F
:1016280013F80C3C002BF7D1062C07DC164D0134BF
:10163800284624B200F0F4FA072CF8D101A800F0EB
:10164800EFFA0A2201A93046FFF774FF9DF804401B
:1016580054B10024013424B204AB234413F80C3CE5
:10166800002BF7D1062C07DC074D0134284624B29D
:1016780000F0D6FA072CF8D101A800F0D1FA04B08E
:1016880070BD00BF783200080C3200082DE9F04721
:1016980084B004466F48BDF93070BDF934508846AF
:1016A8001646994600F0BCFA6B4800F0B9FA204695
:1016B8000A2201A9FFF73EFF9DF8044054B1002417
:1016C800013424B204AB234413F80C3C002BF7D1AB
:1016D800062C08DCDFF88CA10134504624B200F057
:1016E8009FFA072CF8D101A800F09AFA48460A2276
:1016F80001A9FFF71FFF9DF8044054B100240134ED
:1017080024B204AB234413F80C3C002BF7D1062C6D
:1017180008DCDFF850910134484624B200F080FA22
:10172800072CF8D101A800F07BFA4C4800F078FAB1
:101738004B4800F075FA484800F072FA0A22404611
:1017480001A9FFF7F7FE9DF8044054B100240134C5
:1017580024B204AB234413F80C3C002BF7D1062C1D
:1017680008DCDFF800810134404624B200F058FA62
:10177800072CF8D101A800F053FA0A2201A938462B
:10178800FFF7D8FE9DF8044054B10024013424B278
:1017980004AB234413F80C3C002BF7D1062C07DCD0
:1017A800304F0134384624B200F03AFA072CF8D109
:1017B80001A800F035FA294800F032FA2A4800F06A
:1017C8002FFA254800F02CFA0A2201A93046FFF723
:1017D800B1FE9DF8044054B10024013424B204AB96
:1017E800234413F80C3C002BF7D1062C07DC1D4EC4
:1017F8000134304624B200F013FA072CF8D101A8BE
:1018080000F00EFA0A2201A92846FFF793FE9DF878
:10181800044054B10024013424B204AB234413F827
:101828000C3C002BF7D1062C07DC0E4D0134284662
:1018380024B200F0F5F9072CF8D101A800F0F0F96E
:101848000A4800F0EDF90A4804B0BDE8F04700F096
:10185800E7B900BF7C32000878320008743200080B
:10186800803200080C3200088432000888320008F0
:101878009032000830B585B00C4600F0D1F9114817
:1018880000F0CEF920460A2201A9FFF753FE9DF881
:10189800044054B10024013424B204AB234413F8A7
:1018A8000C3C002BF7D1062C07DC074D01342846E9
:1018B80024B200F0B5F9072CF8D101A800F0B0F96E
:1018C80005B030BD783200080C320008F0B5044687
:1018D80085B03E480E46154600F0A2F93C4800F097
:1018E8009FF920460A2201A9FFF724FE9DF804402B
:1018F80054B10024013424B204AB234413F80C3C43
:10190800002BF7D1062C07DC324F0134384624B2BD
:1019180000F086F9072CF8D101A800F081F92E48CB
:1019280000F07EF92D4800F07BF9294800F078F99D
:101938000A2201A93046FFF7FDFD9DF8044054B185
:101948000024013424B204AB234413F80C3C002BCC
:10195800F7D1062C07DC1F4E0134304624B200F0C4
:101968005FF9072CF8D101A800F05AF91A4800F0DD
:1019780057F91B4800F054F9154800F051F90A22AC
:1019880001A92846FFF7D6FD9DF8044054B100246C
:10199800013424B204AB234413F80C3C002BF7D1D8
:1019A800062C07DC0B4D0134284624B200F038F928
:1019B800072CF8D101A800F033F90A4800F030F9F3
:1019C800094805B0BDE8F04000F02AB99432000893
:1019D800783200080C320008743200089C32000883
:1019E800A432000888320008903200081049114BD0
:1019F800D1F8882042F4700210B4C1F888201A681F
:101A08000D4C002042F001021A6098601A6822F01A
:101A1800847222F480321A605C601A684FF00064A5
:101A280022F480221A60D8608C605DF8044B7047FD
:101A380000ED00E00038024010300024164A936898
:101A480003F00C03042B0CD0082B0CD0134B124AB8
:101A5800134892681349C2F30312825CD3400B60A7
:101A68007047114BF3E75368516813F4800F01F086
:101A78003F01536814BF0C4A084AB2FBF1F1064A09
:101A88005268C2F30142C3F38813013201FB03F326
:101A98005200B3FBF2F3DAE7003802400024F40006
:101AA800F43100080000002040787D010F4A104BF7
:101AB800106B104940F0010010B41063106C40F432
:101AC800003010641A6A42F4EE421A621A6840F250
:101AD800836442F0A0021A608C60CB685DF8044B06
:101AE80043F4005343F00C03CB60704700380240C6
:101AF800000002400044004038B5074C23681A062D
:101B0800054604D4FFF74AFA23681B06FAD5024BA8
:101B1800EAB25A60284638BD0044004010B5064C69
:101B280023689A0604D4FFF739FA23689B06FAD586
:101B3800014B586810BD00BF00440040084B5A686C
:101B4800920208D5DA68074942F40012DA60CB68D5
:101B580043F04003CB60BFF34F8FBFF36F8F7047E5
:101B68000060024000440040074B1A68520606D540
:101B78001A68064922F0400200201A600860BFF384
:101B88004F8FBFF36F8F704700440040F0960120DD
:101B98001E4B1F4A196B1F4841F001011963116858
:101BA80041F0A0011160116A41F4EE4111621A6B13
:101BB80042F400121A63D0F8A02042F0006242F406
:101BC8008862C0F8A02072B613494FF0A00C4FF4F9
:101BD800003281F811C30A6062B6186C0F4A40F4EB
:101BE8000030186440F283639360536943F08003C4
:101BF8005361D36843F4005343F00C03D36072B6C7
:101C0800402381F826C34B6062B670470038024013
:101C1800000002400060024000E100E00044004093
:101C280038B5044672B6194D2B68012B06D162B639
:101C3800FFF7B4F972B62B68012BF8D001232B609B
:101C480062B6134D601E2946002305E00133B3F543
:101C5800FA6F01F8012B03D010F8012F002AF5D1F3
:101C68000C4A0D49C2F8A430C2F8A810C2F8AC500A
:101C7800D2F8A03043F01003C2F8A030D2F8A03058
:101C880043F00103C2F8A03038BD00BFF096012030
:101C9800F4960120006002400444004030B585B04D
:101CA8000A2201A9FFF76EFC9DF8044054B10024F4
:101CB800013424B204AB234413F80C3C002BF7D1B5
:101CC800062C07DC064D0134284624B2FFF7A8FF8E
:101CD800072CF8D101A8FFF7A3FF05B030BD00BF5E
:101CE8000C3200080F4A104B106B104940F00200EC
:101CF80010B41063506C40F0100050641A6A42F03F
:101D0800EE421A621A6840F2836442F420421A6072
:101D18008C60CB685DF8044B43F4005343F00C032C
:101D2800CB607047003802400004024000100140B8
:101D38002DE9F04188460024002581B1064600EBD4
:101D4800410736F9020B00F043FC02460B462046D9
:101D5800294600F0F1FAB74204460D46F1D1404653
:101D680000F036FC02460B462046294600F0C4FD2A
:101D780041EC100BBDE8F081704700BF2DE9F84336
:101D880057EC106B144699468846054600F020FC2F
:101D980002460B463046394600F0CCFA0646A9EB17
:101DA80004000F4600F014FC02460B463046394644
:101DB80000F078FC0646A8EB05000F4600F008FC8A
:101DC8000B4602463946304600F096FD024620464C
:101DD8000D46144600F0FCFB02460B4620462946F9
:101DE80000F0AAFA41EC100BBDE8F88308B551ECF5
:101DF800100B05A3D3E9002300F054FC41EC100BB1
:101E080008BD00BFAFF30080775AF01ADCA54C403C
:101E18002DE9F04F2DED028B83B0834601928A465F
:101E2800E9B1B0EE408A851E002444B3B5F900300C
:101E3800B5F9022007EE903A9B1AB8EEE77A07EE5A
:101E4800903AF8EEE77AA7EEC87ABDEEC77A17EEB1
:101E5800103A6B800134544505F10205E5D10AF1C9
:101E6800004A0AF1FF3A3BF91A0000F0B1FB019B66
:101E7800C3E9000103B0BDEC028BBDE8F08F019B04
:101E8800BBF90000D3E9008900F0A2FB02460B462B
:101E98004046494600F04EFA064618EE100A0F462C
:101EA80000F0A8FB02460B463046394600F0FAFB24
:101EB80002460B464046494600F03CFA00F08CFECC
:101EC800ABF80000C6E700BF0160704772B6036850
:101ED8000133036062B6704710B5044672B60368F2
:101EE800002B06DC62B6FFF759F872B62368002BA0
:101EF800F8DD013B236062B610BD00BF9FED047B97
:101F0800054A0649002382ED027B13600B60704787
:101F18000000000000000000C89E0120040000200E
:101F280010B572B6084C23685BB900F041FB012379
:101F3800C4E90201236062B672B6044A1368013329
:101F4800136062B610BD00BFC89E012004000020C7
:101F580010B572B60B4C2368002B06DC62B6FFF78F
:101F68001DF872B62368002BF8DD013B236062B6CA
:101F780072B6054CD4E9020100F056FE0023236036
:101F880062B610BD04000020C89E012072B6064B40
:101F98000022C3E90422C3E90622C3E90822C3E9EF
:101FA8000A221A8662B67047C89E0120124BDA6A66
:101FB800052A1AD010B472B61C69104A611C82FB3B
:101FC800012CCA17C2EB6C0203EB840402EB8202F9
:101FD8008A1AA0611A6172B6DA6A0132DA6262B6E6
:101FE80062B601205DF8044B70471A8E01324FF03B
:101FF800FF301A86704700BFC89E01206766666674
:1020080010B572B60F4CE36A002B06DC62B6FEF719
:10201800C5FF72B6E36A002BF8DD013BE36262B6E6
:1020280072B6616908484A1C80FB0230D317C3EBBB
:10203800600304EB810103EB8303D31A88696361AE
:1020480062B610BDC89E012067666666024A93683C
:10205800DB07FCD59368704700300140024A93685B
:102068009B07FCD5936870470030014072B62DE994
:10207800F00F13480168C1F800D001B5BFF34F8FC6
:10208800BFF36F8FFEF7B2FFBDE801400168D1F8DA
:1020980000D0BDE8F00FBFF34F8FBFF36F8F62B66C
:1020A800704707480268D2F800D0BDE8F00F0FBCAF
:1020B8005DF804CB01B05DF804EB01B062B670477F
:1020C8000C00002018330008000000200800002041
:1020D80008000020FC9E012070B54FF0FF0C4CF466
:1020E800E06C1CEA11541DBF1CEA135594EA0C0F4E
:1020F80095EA0C0F00F0DEF82C4481EA030621EA89
:102108004C5123EA4C5350EA013518BF52EA0335C3
:1021180041F4801143F4801338D0A0FB02CE4FF075
:102128000005E1FB02E506F00042E0FB03E54FF0A5
:102138000006E1FB03569CF0000F18BF4EF0010E9D
:10214800A4F1FF04B6F5007F64F5407404D25FEA99
:102158004E0E6D4146EB060642EAC62141EA55514C
:102168004FEAC52040EA5E504FEACE2EB4F1FD0C8E
:1021780088BFBCF5E06F1ED8BEF1004F08BF5FEA0C
:10218800500E50F1000041EB045170BD06F00046BE
:1021980046EA010140EA020081EA0301B4EB5C046B
:1021A800C2BFD4EB0C0541EA045170BD41F4801163
:1021B8004FF0000E013C00F3AB8014F1360FDEBF88
:1021C800002001F0004170BDC4F10004203C35DA64
:1021D8000C341BDC04F11404C4F1200500FA05F3E7
:1021E80020FA04F001FA05F240EA020001F0004288
:1021F80021F0004110EBD37021FA04F642EB0601FE
:102208005EEA430E08BF20EAD37070BDC4F10C0427
:10221800C4F1200500FA04F320FA05F001FA04F2EB
:1022280040EA020001F0004110EBD37041F10001D7
:102238005EEA430E08BF20EAD37070BDC4F12005E2
:1022480000FA05F24EEA020E20FA04F301FA05F24A
:1022580043EA020321FA04F001F0004121FA04F2F2
:1022680020EA020000EBD3705EEA430E08BF20EAC2
:10227800D37070BD94F0000F0FD101F000464000FC
:1022880041EB010111F4801F08BF013CF7D041EA7E
:10229800060195F0000F18BF704703F00046520082
:1022A80043EB030313F4801F08BF013DF7D043EA53
:1022B8000603704794EA0C0F0CEA135518BF95EA09
:1022C8000C0F0CD050EA410618BF52EA4306D1D190
:1022D80081EA030101F000414FF0000070BD50EAAF
:1022E800410606BF1046194652EA430619D094EA39
:1022F8000C0F02D150EA013613D195EA0C0F05D123
:1023080052EA03361CBF104619460AD181EA030176
:1023180001F0004141F0FE4141F470014FF000002E
:1023280070BD41F0FE4141F4780170BD81F000417B
:1023380002E000BF83F0004330B54FEA41044FEAA2
:10234800430594EA050F08BF90EA020F1FBF54EA3D
:10235800000C55EA020C7FEA645C7FEA655C00F0D9
:10236800E2804FEA5454D4EB5555B8BF6D420CDDAA
:102378002C4480EA020281EA030382EA000083EA2D
:10238800010180EA020281EA0303362D88BF30BDCD
:1023980011F0004F4FEA01314FF4801C4CEA113123
:1023A80002D0404261EB410113F0004F4FEA033382
:1023B8004CEA133302D0524263EB430394EA050F0D
:1023C80000F0A780A4F10104D5F1200E0DDB02FA7C
:1023D8000EFC22FA05F2801841F1000103FA0EF210
:1023E800801843FA05F359410EE0A5F120050EF1D6
:1023F800200E012A03FA0EFC28BF4CF0020C43FA07
:1024080005F3C01851EBE37101F0004507D54FF013
:10241800000EDCF1000C7EEB00006EEB0101B1F563
:10242800801F1BD3B1F5001F0CD349085FEA3000A9
:102438004FEA3C0C04F101044FEA445212F5800FB4
:1024480080F09A80BCF1004F08BF5FEA500C50F151
:10245800000041EB045141EA050130BD5FEA4C0C34
:10246800404141EB0101013C28BFB1F5801FE9D291
:1024780091F0000F04BF01460020B1FA81F308BFB4
:102488002033A3F10B03B3F120020CDA0C3208DD80
:1024980002F1140CC2F10C0201FA0CF021FA02F15B
:1024A8000CE002F11402D8BFC2F1200C01FA02F1CB
:1024B80020FA0CFCDCBF41EA0C019040E41AA2BFF0
:1024C80001EB0451294330BD6FEA04041F3C1CDAB8
:1024D8000C340EDC04F11404C4F1200220FA04F0D8
:1024E80001FA02F340EA030021FA04F345EA030182
:1024F80030BDC4F10C04C4F1200220FA02F001FA44
:1025080004F340EA0300294630BD21FA04F02946C5
:1025180030BD94F0000F83F4801306BF81F480115E
:102528000134013D4EE77FEA645C18BF7FEA655CD1
:1025380029D094EA050F08BF90EA020F05D054EAA3
:10254800000C04BF1946104630BD91EA030F1EBFA8
:102558000021002030BD5FEA545C05D140004941AC
:1025680028BF41F0004130BD14F580043CBF01F59F
:10257800801130BD01F0004545F0FE4141F4700185
:102588004FF0000030BD7FEA645C1ABF1946104660
:102598007FEA655C1CBF0B46024650EA013406BF61
:1025A80052EA033591EA030F41F4002130BD00BF20
:1025B80090F0000F04BF0021704730B54FF48064DD
:1025C80004F132044FF000054FF0000150E700BF5E
:1025D80090F0000F04BF0021704730B54FF48064BD
:1025E80004F1320410F0004548BF40424FF00001AA
:1025F8003EE700BF42004FEAE2014FEA31014FEAED
:1026080002701FBF12F07F4393F07F4F81F060513B
:10261800704732F07F4208BF704793F07F4F04BF86
:1026280041F40021704730B54FF4607401F0004563
:1026380021F000411CE700BF50EA010208BF7047C3
:1026480030B54FF000050AE050EA010208BF7047B4
:1026580030B511F0004502D5404261EB41014FF41D
:10266800806404F132045FEA915C3FF4D8AE4FF025
:1026780003025FEADC0C18BF03325FEADC0C18BF08
:10268800033202EBDC02C2F1200300FA03FC20FA59
:1026980002F001FA03FE40EA0E0021FA02F11444A6
:1026A800BDE600BF70B54FF0FF0C4CF4E06C1CEABF
:1026B80011541DBF1CEA135594EA0C0F95EA0C0F30
:1026C80000F0DEF82C4481EA030621EA4C5123EAA3
:1026D8004C5350EA013518BF52EA033541F48011D2
:1026E80043F4801338D0A0FB02CE4FF00005E1FB85
:1026F80002E506F00042E0FB03E54FF00006E1FBCF
:1027080003569CF0000F18BF4EF0010EA4F1FF0411
:10271800B6F5007F64F5407404D25FEA4E0E6D4151
:1027280046EB060642EAC62141EA55514FEAC52062
:1027380040EA5E504FEACE2EB4F1FD0C88BFBCF5DE
:10274800E06F1ED8BEF1004F08BF5FEA500E50F18F
:10275800000041EB045170BD06F0004646EA010155
:1027680040EA020081EA0301B4EB5C04C2BFD4EB87
:102778000C0541EA045170BD41F480114FF0000E80
:10278800013C00F3AB8014F1360FDEBF002001F0EE
:10279800004170BDC4F10004203C35DA0C341BDC68
:1027A80004F11404C4F1200500FA05F320FA04F03A
:1027B80001FA05F240EA020001F0004221F000416E
:1027C80010EBD37021FA04F642EB06015EEA430EE1
:1027D80008BF20EAD37070BDC4F10C04C4F1200511
:1027E80000FA04F320FA05F001FA04F240EA0200C4
:1027F80001F0004110EBD37041F100015EEA430E95
:1028080008BF20EAD37070BDC4F1200500FA05F2B4
:102818004EEA020E20FA04F301FA05F243EA020333
:1028280021FA04F001F0004121FA04F220EA020042
:1028380000EBD3705EEA430E08BF20EAD37070BD88
:1028480094F0000F0FD101F00046400041EB010168
:1028580011F4801F08BF013CF7D041EA060195F04A
:10286800000F18BF704703F00046520043EB030304
:1028780013F4801F08BF013DF7D043EA06037047F1
:1028880094EA0C0F0CEA135518BF95EA0C0F0CD0FC
:1028980050EA410618BF52EA4306D1D181EA030142
:1028A80001F000414FF0000070BD50EA410606BF3C
:1028B8001046194652EA430619D094EA0C0F02D181
:1028C80050EA013613D195EA0C0F05D152EA0336C6
:1028D8001CBF104619460AD181EA030101F00041E4
:1028E80041F0FE4141F470014FF0000070BD41F02D
:1028F800FE4141F4780170BD70B54FF0FF0C4CF407
:10290800E06C1CEA11541DBF1CEA135594EA0C0F25
:1029180095EA0C0F00F0A7F8A4EB050481EA030E72
:1029280052EA03354FEA013100F088804FEA033359
:102938004FF0805545EA131343EA12634FEA022227
:1029480045EA111545EA10654FEA00260EF00041E8
:102958009D4208BF964244F1FD0404F5407402D23A
:102968005B084FEA3202B61A65EB03055B084FEACB
:1029780032024FF480104FF4002CB6EB020E75EBC8
:10298800030E22BFB61A754640EA0C005B084FEAF0
:102998003202B6EB020E75EB030E22BFB61A75466D
:1029A80040EA5C005B084FEA3202B6EB020E75EBB8
:1029B800030E22BFB61A754640EA9C005B084FEA30
:1029C8003202B6EB020E75EB030E22BFB61A75463D
:1029D80040EADC0055EA060E18D04FEA051545EA2C
:1029E80016754FEA06164FEAC30343EA52734FEAD5
:1029F800C2025FEA1C1CC0D111F4801F0BD141EA4E
:102A080000014FF000004FF0004CB6E711F4801FB2
:102A180004BF01430020B4F1FD0C88BFBCF5E06F92
:102A28003FF6AFAEB5EB030C04BFB6EB020C5FEAA2
:102A3800500C50F1000041EB045170BD0EF0004EF7
:102A48004EEA113114EB5C04C2BFD4EB0C0541EA29
:102A5800045170BD41F480114FF0000E013C90E626
:102A680045EA060E8DE60CEA135594EA0C0F08BFEA
:102A780095EA0C0F3FF43BAF94EA0C0F0AD150EAE9
:102A880001347FF434AF95EA0C0F7FF425AF10467C
:102A980019462CE795EA0C0F06D152EA03353FF4A4
:102AA800FDAE1046194622E750EA410618BF52EA21
:102AB80043067FF4C5AE50EA41047FF40DAF52EAF5
:102AC80043057FF4EBAE12E74FF0FF3C06E000BF92
:102AD8004FF0010C02E000BF4FF0010C4DF804CD9F
:102AE8004FEA410C7FEA6C5C4FEA430C18BF7FEA5F
:102AF8006C5C1BD001B050EA410C0CBF52EA430C8D
:102B080091EA030F02BF90EA020F0020704710F10C
:102B1800000F91EA030F58BF994208BF90422CBF9B
:102B2800D8176FEAE37040F0010070474FEA410C94
:102B38007FEA6C5C02D150EA013C07D14FEA430CB2
:102B48007FEA6C5CD6D152EA033CD3D05DF8040B23
:102B5800704700BF8446104662468C461946634655
:102B680000E000BF01B5FFF7B7FF002848BF10F12C
:102B7800000F01BD4DF808EDFFF7F4FF0CBF012071
:102B880000205DF808FB00BF4DF808EDFFF7EAFFED
:102B980034BF012000205DF808FB00BF4DF808EDA8
:102BA800FFF7E0FF94BF012000205DF808FB00BF9D
:102BB8004DF808EDFFF7CEFF94BF012000205DF827
:102BC80008FB00BF4DF808EDFFF7C4FF34BF012034
:102BD80000205DF808FB00BF4FEA410212F5001221
:102BE80015D211D56FF47873B3EB625212D94FEA4C
:102BF800C12343F0004343EA505311F0004F23FA36
:102C080002F018BF404270474FF00000704750EA8A
:102C1800013005D111F0004008BF6FF00040704747
:102C28004FF00000704700BF4A0011D212F50012A1
:102C380011D20DD56FF47873B3EB62520ED44FEA0C
:102C4800C12343F0004343EA505323FA02F070478C
:102C58004FF00000704750EA013002D14FF0FF30CA
:102C680070474FF00000704708B5FEF73DF9FDF7D3
:102C780051FBFEF78DFF01210548FEF70BF90121F5
:102C88000448FEF707F9FEF763F9002008BD00BF06
:102C9800311400085D140008002103E00A4B5B585A
:102CA8004350043109480A4B42189A42F6D3094A5C
:102CB80002E0002342F8043B074B9A42F9D3FEF79F
:102CC80095FEFFF7D1FF7047183300080000002079
:102CD8000800002008000020FC9E0120FEE70000FC
:102CE80000F002B80000000051EC110B43422DE93E
:102CF800F0470343644E21F0004E4EEAD373B342CB
:102D080055EC104B3ED86342234325F0004A4AEA6B
:102D1800D373B342A94635D801F1404303F5801374
:102D280003433ED08F1707F002075AEA040347EA25
:102D3800D5772FD05EEA000337D0B64544D0B245E8
:102D480033D0AAEB0E0EBEF1747F4FEA2E5338DA59
:102D5800002945DA3C3343DA9FED3D0B012F5DD066
:102D6800022F4AD0A7B151EC100B3BA3D3E90023A3
:102D7800FFF7E0FA3AA3D3E90023FFF7DBFA41ECC7
:102D8800100B05E022462B46FFF7D6FA41EC100B54
:102D9800BDE8F087022F0ED0032FF9D19FED320B3B
:102DA800F6E7BDE8F04700F077B8B9F1000F05DBAA
:102DB8009FED2F0BECE79FED2A0BE9E79FED2E0B1C
:102DC800E6E79FED2B0BC9E7F24507F1FF372ED059
:102DD800022F34D82D4B03EBC70797ED000BD7E72D
:102DE80002460B4620462946FFF786FD41EC100BAC
:102DF80000F0F2F900F050F8B0E717A3D3E9002388
:102E080051EC100BFFF796FA02460B4614A1D1E9D4
:102E18000001FFF78FFA41EC100BB9E710EE901A9A
:102E280053EC102B01F1004343EC102BB0E7022FB9
:102E380008D8174B03EBC70797ED000BA8E79FEDE2
:102E4800040BA5E79FED0E0BA2E700BFAFF30080D0
:102E58000000000000000000075C143326A6A13C17
:102E6800182D4454FB210940182D4454FB2109C056
:102E7800182D4454FB21F93F182D4454FB21F9BF68
:102E8800182D4454FB21E93F0000F07FC0320008B0
:102E9800A8320008000000002DE9F84F55EC104B4F
:102EA800C34B25F000469E42AA4617DDC14B9E4201
:102EB8000ADC07D0BAF1000F40F3CB809FEDA00BDE
:102EC800BDE8F88F002CF5D022462B46204629462F
:102ED800FFF732FA41EC100BBDE8F88FB64B9E4273
:102EE80000F3BB80A3F1DE739E4240F3A0804FF055
:102EF800FF3B22462B4620462946FFF7D3FB0246D6
:102F08000B4680468946FFF7CDFB8FA3D3E9002304
:102F180006460F46FFF7C6FB8DA3D3E90023FFF74C
:102F28000BFA32463B46FFF7BDFB8BA3D3E90023E0
:102F3800FFF702FA32463B46FFF7B4FB88A3D3E912
:102F48000023FFF7F9F932463B46FFF7ABFB86A3B0
:102F5800D3E90023FFF7F0F932463B46FFF7A2FB1F
:102F680083A3D3E90023FFF7E7F942464B46FFF76F
:102F780099FB81A3D3E90023804689463046394628
:102F8800FFF790FB7EA3D3E90023FFF7D3F932467E
:102F98003B46FFF787FB7CA3D3E90023FFF7CAF979
:102FA80032463B46FFF77EFB79A3D3E90023FFF7C0
:102FB800C1F932463B46FFF775FB77A3D3E90023F7
:102FC800FFF7B8F932463B46FFF76CFBBBF1FF3F12
:102FD80002460B464046494662D0FFF7ADF9774EA8
:102FE80022462B46FFF75EFB754B06EBCB064FEAF6
:102FF800CB0B9B44DBE90023FFF79CF922462B46C9
:10300800FFF798F902460B46D6E90001FFF792F957
:10301800BAF1000F41EC100BBFF65EAF10EE901A3C
:10302800024601F1004343EC102BBDE8F88F5CA386
:10303800D3E9002310EE100A2946FFF77DF9614B0A
:103048000022FFF7BFFD00283FF451AF45EC104BBD
:1030580042E79FED550BBDE8F88F00F0BDF85A4BDD
:103068009E4255EC104B2BDCA3F550239E4256DCB8
:1030780010EE102A2B4610EE100A2946FFF75CF9CD
:10308800504B0022FFF756F902460B4620462946C8
:1030980014461D464FF0000B00224FF0804327E0F6
:1030A800FFF74AF922462B46FFF7FCFA02460B4681
:1030B80020462946FFF73EF941EC100BBDE8F88F92
:1030C800424B9E421FDA424B0022294610EE100A5C
:1030D800FFF730F902460B462046294614461D469E
:1030E80000223B4B4FF0020BFFF7DCFA354B002276
:1030F800FFF722F902460B4620462946FFF7FCFB5C
:1031080004460D46F5E62B46324910EE102A0020FB
:10311800FFF7F2FB4FF0030B04460D46E9E6294B97
:103128000022294610EE100AFFF704F902460B4662
:10313800204629464FF0010B14461D46D6E700BF2E
:10314800182D4454FB21F93F11DA22E33AAD903FA0
:10315800EB0D76244B7BA93F513DD0A0660DB13FC6
:103168006E204CC5CD45B73FFF8300922449C23F2E
:103178000D5555555555D53F2F6C6A2C44B4A2BFF3
:103188009AFDDE522DDEAD3F6D9A74AFF2B0B33FBB
:10319800711623FEC671BC3FC4EB98999999C93F33
:1031A8009C7500883CE4377E182D4454FB21F9BFF8
:1031B800FFFF0F440000F07FFFFFDB3FD83200081D
:1031C800F83200080000F03FFFFFF23F00800340A4
:1031D8000000F83F0000F0BF51EC100B10EE102A71
:1031E80021F0004343EC102B704700BF00000000A3
:1031F800000000000102030406070809000000009F
:10320800010203042000000068656C6C6F20776F72
:10321800726C64007A797877767574737271706FEE
:103228006E6D6C6B6A69686766656463626139387C
:103238003736353433323130313233343536373846
:10324800396162636465666768696A6B6C6D6E6F25
:10325800707172737475767778797A0020202020DF
:10326800416363656C2020204779726F0D0A000066
:103278003A00000058000000590000005A00000001
:103288001B5B3241000000000D000000526F6C6CA7
:1032980000000000506974636800000059617700FD
:1032A800182D4454FB21E9BFD221337F7CD9024039
:1032B800D221337F7CD902C00000000000000080CA
:1032C800182D4454FB210940182D4454FB2109C0F2
:1032D8004FBB610567ACDD3F182D4454FB21E93F26
:1032E8009BF681D20B73EF3F182D4454FB21F93F15
:1032F800E2652F227F2B7A3C075C143326A6813C9B
:10330800BDCBF07A8807703C075C143326A6913C45
:083318000024F4000100000094
:0400000508002CA122
:00000001FF
